:020000040000FA
:100000000C945D010C948E010C948E010C948E0165
:100010000C948E010C948E010C948E010C948E0124
:100020000C948E010C948E010C948E010C948E0114
:100030000C948E010C948E010C948E010C948E0104
:100040000C948E010C9484080C948E010C948E01F7
:100050000C948E010C948E010C948E010C94B007BC
:100060000C948E010C948E010C948E010C948E01D4
:100070000C948E010C948E010C948E010C948E01C4
:100080000C9456080C948E010C948E010C948E01E5
:100090000C948E010C948E010C948E010C948E01A4
:1000A0000C948E010C948E010C9428080C948E01F3
:1000B0000C948E010C948E010C948E010C94FA0712
:1000C0000C948E010C948E010C948E010C948E0174
:1000D0000C948E010C948E010C948E010C948E0164
:1000E0000C948E010C946B030C94E8020C9457034F
:1000F0000C944D030C94DE020C94E5010C94F20276
:100100000C94E1010C94F6010C941C020C940C0369
:100110000C94FA010C9490010C942A030C9456044C
:100120000C94A50A0C9416030C9416020C94430329
:100130000C94E9010C9420020C940E020C943903E7
:100140000C9404030C9455040C94DB010C94AB0A3E
:100150000C9461030C94FC020C94F0010C94ED01DE
:100160000C94540A0C9420030C94820A0C940802F8
:100170000C9412020C9404020C94A80A0C94480AE1
:100180000C9400020C94D9020C944A0A0C941B02A1
:100190000C94D1020C94EC060000210024002700EE
:1001A0002A002D0030003300010100000401070186
:1001B0000A0100002200250028002B002E0031003B
:1001C000340002010000050108010B0100002000BD
:1001D0002300260029002C002F003200000100001F
:1001E00003010601090105050505070508080808BA
:1001F000020202020A0A08080404040401010101BF
:1002000001010101030303030303030304070707B9
:100210000C0C0C0C0C0C0C0C02020202060606065E
:10022000060606060B0B0B0B0B0B0B0B010210202B
:10023000200808102040102040800201020108041C
:1002400002010102040810204080804020100804B0
:100250000201800402018040201008040201080409
:10026000020101020408102040800102040810204D
:10027000408000000A0B02090C0D0E080703040160
:10028000000000000000000000000000000000006E
:10029000000000000000000000000000000012113B
:1002A000100000000000000000000000000000003E
:1002B0000000000000000000AB0A11241FBECFEFB9
:1002C000D1E2DEBFCDBF00E00CBF12E0A0E0B2E0A3
:1002D000E2E4FBE100E00BBF02C007900D92A03505
:1002E000B107D9F723E0A0E5B2E001C01D92A23129
:1002F000B207E1F711E0CDE5D1E000E006C02197BB
:100300000109802FFE010E94970DCC35D10780E0B6
:100310000807A9F70E94F7080C949F0D0C940000A1
:10032000AF92BF92CF92DF92EF92FF920F931F9303
:10033000CF93DF936C017B018B01040F151FEB0141
:100340005E01AE18BF08C017D10759F06991D601F8
:10035000ED91FC910190F081E02DC6011995892B5A
:1003600079F7C501DF91CF911F910F91FF90EF9029
:10037000DF90CF90BF90AF9008958150823108F008
:100380005AC0E82FF0E08827E753FE4F8F4F0C94B8
:10039000970DE901ED01DB01E101E5011B02F0012F
:1003A000F601FA010002040208020E0212021B0208
:1003B00016021C022002809180008F7780938000BB
:1003C0000895809180008F7DF9CF80918000877F94
:1003D000F5CF84B58F7784BD089584B58F7DFBCF2D
:1003E0008091B0008F778093B00008958091B00025
:1003F0008F7DF9CF809190008F7780939000089542
:10040000809190008F7DF9CF80919000877FF5CF0C
:100410008091A0008F778093A00008958091A00024
:100420008F7DF9CF8091A000877FF5CF809120014B
:100430008F77809320010895809120018F7DF9CFDF
:1004400080912001877FF5CFCF93DF93EAE8F2E038
:100450008491E4E4F2E0D491EEEFF1E0C491CC2396
:10046000A1F081110E94BD01EC2FF0E0EE0FFF1F03
:10047000E453FE4FA591B491EC91ED2381E090E01F
:1004800009F480E0DF91CF91089580E090E0FACF09
:100490001F93CF93DF93282F30E0F901EE58FD4FE3
:1004A0008491F901E45DFD4FD491F901EA51FE4FC9
:1004B000C491CC23A9F0162F81110E94BD01EC2F0D
:1004C000F0E0EE0FFF1FEE54FE4FA591B4918FB7F1
:1004D000F894EC91111108C0D095DE23DC938FBF06
:1004E000DF91CF911F910895DE2BF8CFCF93DF934B
:1004F00090E0FC01E45DFD4F24918A519E4FFC0188
:1005000084918823D1F090E0880F991FFC01E85670
:10051000FE4FA591B491FC01EE54FE4FC591D491CC
:1005200061110EC09FB7F8948C91E22FE0958E2355
:100530008C932881E223E8839FBFDF91CF910895B8
:100540008FB7F894EC91E22BEC938FBFF6CF1F930B
:10055000CF93DF93182FEB0161E00E947602E12F29
:10056000F0E0EE58FD4FE491E150E23108F0B3C005
:10057000F0E08827E154FD4F8F4F0C94970DD10286
:10058000D902DE02E802F2026B03FC0204030C0350
:10059000160320032A03390343036B034D03570358
:1005A000610384B5806884BDC7BDDF91CF911F9181
:1005B000089584B5806284BDC8BDF7CF8091800066
:1005C000806880938000D0938900C0938800EDCF2D
:1005D00080918000806280938000D0938B00C093D4
:1005E0008A00E3CF80918000886080938000D09360
:1005F0008D00C0938C00D9CF8091B000806880932B
:10060000B000C093B300D1CF8091B00080628093DE
:10061000B000C093B400C9CF8091900080688093EF
:100620009000D0939900C0939800BFCF8091900024
:10063000806280939000D0939B00C0939A00B5CFC6
:1006400080919000886080939000D0939D00C0932B
:100650009C00ABCF8091A00080688093A000809127
:10066000A0008F7B8093A000D093A900C093A80026
:100670009CCF8091A00080628093A000D093AB00BB
:10068000C093AA0092CF8091A00088608093A000C0
:10069000D093AD00C093AC0088CF809120018068DA
:1006A00080932001D0932901C09328017ECF8091AF
:1006B0002001806280932001D0932B01C0932A01F6
:1006C00074CF80912001886080932001D0932D0108
:1006D000C0932C016ACF61E0812FDF91CF911F91F0
:1006E0000C9448023FB7F8948091590290915A02B5
:1006F000A0915B02B0915C0226B5A89B05C02F3F7C
:1007000019F00196A11DB11D3FBFBA2FA92F982F37
:100710008827BC01CD01620F711D811D911D42E032
:10072000660F771F881F991F4A95D1F708958F92FA
:100730009F92AF92BF92CF92DF92EF92FF926B01A6
:100740007C010E9472034B015C01C114D104E104DD
:10075000F104B9F00E947203681979098A099B09AA
:10076000683E73408105910580F321E0C21AD108EB
:10077000E108F10888EE880E83E0981EA11CB11CE8
:10078000E4CFFF90EF90DF90CF90BF90AF909F901D
:100790008F900895CF93DF93CCE0D3E061E089811F
:1007A0000E94480260E08A810E94480261E08881DC
:1007B0000E94480268EE73E080E090E00E94970398
:1007C00060E088810E94480260E08D81DF91CF91D6
:1007D0000C944802CF93DF93C0E8D0E08636D9F579
:1007E00061E080910D030E94480260E080910E0359
:1007F0000E94480261E080910F030E94480260E07D
:10080000809110030E944802BE0180910C030E9457
:10081000A702BE01809111030E94A7026AE070E066
:1008200080E090E00E9497032496C11581E0D807EC
:10083000B9F668EE73E080E090E00E94970360E014
:1008400080910C030E94480260E080911103DF91C7
:10085000CF910C94480260E080910D030E94480201
:1008600061E080910E030E94480260E080910F03D6
:100870000E94480261E0809110030E944802BE017C
:1008800080910C030E94A702BE01809111030E9477
:10089000A7026AE070E080E090E00E94970324964F
:1008A000C11581E0D807B9F6C4CF089590E080E083
:1008B00008958F929F92AF92BF92FF920F931F93D2
:1008C000CF93DF93FC01F0808FE28F1508F44AC0CC
:1008D000828108E512E0081B110987FD1395000FBE
:1008E000111F000F111F8181C8E8D0E0C81BD1097A
:1008F00087FDD395CC0FDD1FCC0FDD1F4E010D2ED4
:10090000000CAA08BB089801012E000C440B550BE3
:10091000281939094A095B09DB010E942E0C24EBD6
:1009200030E040E050E00E94040C820E931EA41EB2
:10093000B51E8C169D062CF0E801801691060CF46D
:10094000E4012297CC0FDD1F2FB7F8948F2D90E094
:10095000FC01EE0FFF1FE80FF91FE958FD4FD2838E
:10096000C1832FBFDF91CF911F910F91FF90BF9057
:10097000AF909F908F9008951F93CF93DF93EC01DA
:10098000162F8881803308F04EC061E0812F0E94CD
:1009900076028881282F30E0F901EE0FFF1FE20F69
:1009A000F31FE958FD4F1F736081607C612B6083EA
:1009B00019821A822CE0622F0E948B0D829FB00157
:1009C000112430E020E0AB01420F531FFA01EE0F7B
:1009D000FF1FE40FF51FE958FD4F908196FD16C0EB
:1009E0002F5F3F4F2C30310571F7813009F51092A0
:1009F000800082E080938100109285001092840034
:100A0000B19A80916F00826080936F00E8818E2F91
:100A100090E0FC01EE0FFF1FE80FF91FE958FD4FB2
:100A20008081806480838881DF91CF911F910895B8
:100A3000823061F4109290008093910010929500A2
:100A40001092940088BB80937100E0CF833069F4EA
:100A50001092A00082E08093A1001092A500109255
:100A6000A40089BB80937200D1CF8111CFCF1092A7
:100A7000200182E08093210110922501109224012F
:100A80008ABB80937300C2CF0F931F93CF93DF93E2
:100A900000D0CDB7DEB78B0120910703203348F596
:100AA00091E0920F90930703298330E0F901EE0F54
:100AB000FF1FE20FF31FE958FD4F28EB3BE03283A5
:100AC000218360910903823711F06091080370E07F
:100AD000CE0101960E94BC04B801CE0101960E948D
:100AE00059040F900F900F90DF91CF911F910F91AC
:100AF00008959FEF9983E5CFAF92BF92CF92DF9297
:100B0000EF92FF920F931F93CF93DF936B017A01C4
:100B1000EC01C05BDD4F28813CE0389F8001399FAC
:100B2000100D1124A0900703B12C27FF1FC0FB015B
:100B30001182108288818F5F888388819801280FB5
:100B4000311D87FD3A95F6012A153B051CF4888175
:100B50008C30C4F180819181049680349C4908F4E2
:100B600073C0F60180819181049670C088819801DC
:100B7000280F311D87FD3A952A153B05DCF6888143
:100B8000A801480F511D87FD5A95FA01EE0FFF1F6E
:100B9000E40FF51FE958FD4F808186FFCBCF888198
:100BA000F801E80FF11D87FDFA95CF01EE0FFF1F49
:100BB000E80FF91FE958FD4F808160E08F730E94B4
:100BC0004802B8CF808191812881A801420F511D30
:100BD00027FD5A959A01FA01EE0FFF1FE20FF31F4E
:100BE000E958FD4F21813281820F931FF7019183D4
:100BF000808388819801280F311D87FD3A95F9017E
:100C0000EE0FFF1FE20FF31FE958FD4F808186FFB3
:100C100022C08881080F111D87FD1A95F801EE0F7B
:100C2000FF1FE00FF11FE958FD4F808161E08F73D6
:100C3000DF91CF911F910F91FF90EF90DF90CF90B8
:100C4000BF90AF900C94480280E49CE9F701918337
:100C500080838FEF8883DF91CF911F910F91FF9059
:100C6000EF90DF90CF90BF90AF900895CF93DF9338
:100C7000CCE0D3E061E08B810E94480260E08C818F
:100C80000E94480261E08D810E94480268EE73E094
:100C900080E090E00E94970360E088810E94480213
:100CA00060E08D81DF91CF910C944802CF93DF9368
:100CB000EC0160E08E810E94480261E08E810E941A
:100CC000480260E08E810E9448028BE891E0019723
:100CD000F1F7DF91CF910895CF92DF92EF92FF92DB
:100CE0000F931F93CF93DF936C017C0187E0E80E95
:100CF000F11CD0E0C0E0062F10E0B8010C2E02C0BD
:100D0000759567950A94E2F76170F70181917F010B
:100D10000E9448022196C430D10579F7C601DF91BF
:100D2000CF911F910F91FF90EF90DF90CF900C9497
:100D30005606CF92DF92EF92FF920F931F93CF93BD
:100D4000DF93EC01F62E642F8C810E9448028D8186
:100D50008F3F19F060E00E9448020F2D10E08F8550
:100D600084FF25C06E0187E0C80ED11CF12CE12C58
:100D7000B8010E2C02C0759567950A94E2F7617070
:100D8000F60181916F010E944802FFEFEF1AFF0AFE
:100D900088E0E816F10461F7CE01DF91CF911F9151
:100DA0000F91FF90EF90DF90CF900C945606B80112
:100DB00084E0759567958A95E1F7CE010E946C06EF
:100DC0006F2DCE01DF91CF911F910F91FF90EF908A
:100DD000DF90CF900C946C0641E00E94990681E070
:100DE00090E0089540E00C9499060F931F93CF93E1
:100DF000DF93EC01623019F48F8588608F876B8BED
:100E00001C8A80E48D8B80E18E8B80E58F8B61E086
:100E10008C810E9476028D818F3F19F061E00E94E3
:100E2000760261E08E810E9476028E0198012C1B71
:100E30003D0B8F8584FD0DC084E090E00F5F1F4F58
:100E4000281739074CF461E0F80186810E94760288
:100E5000EDCF88E090E0F2CF8BE39DE00197F1F7D2
:100E600060E08C810E94480260E08E810E9448020E
:100E70008D818F3F19F060E00E9448026F8564FD0C
:100E800039C063E0CE010E946C060BE416E4C80191
:100E90000197F1F763E0CE010E946C06C80101974B
:100EA000F1F763E0CE010E946C0683E592E00197C2
:100EB000F1F762E0CE010E946C066F856062CE01A0
:100EC0000E94F20684E0888B6CE0CE010E94F2065C
:100ED00061E0CE010E94F2068BE39FE10197F1F7FA
:100EE00082E0898B66E0CE01DF91CF911F910F9157
:100EF0000C94F2066062CE010E94F2068BE496E446
:100F00000197F1F76F856062CE010E94F20683E5DA
:100F100092E00197F1F76F856062CE010E94F206C0
:100F2000CCCF0F931F93CF93DF938B01877098E003
:100F3000899FB001112460648FE592E00E94F2065F
:100F4000E801085F1F4F69918FE592E00E94EC066F
:100F5000C017D107C1F7DF91CF911F910F9108956D
:100F60001F920F920FB60F9211242F933F938F93DE
:100F70009F93AF93BF938091550290915602A09199
:100F80005702B09158023091540223E0230F2D37BD
:100F900058F50196A11DB11D20935402809355026E
:100FA00090935602A0935702B09358028091590231
:100FB00090915A02A0915B02B0915C020196A11D32
:100FC000B11D8093590290935A02A0935B02B09393
:100FD0005C02BF91AF919F918F913F912F910F90A4
:100FE0000FBE0F901F90189526E8230F0296A11DA3
:100FF000B11DD2CF1F920F920FB60F9211240BB6D4
:101000000F922F933F934F935F936F937F938F93A1
:101010009F93AF93BF93EF93FF9348E251E064E255
:1010200071E090E080E00E947C05FF91EF91BF911C
:10103000AF919F918F917F916F915F914F913F9170
:101040002F910F900BBE0F900FBE0F901F90189511
:101050001F920F920FB60F9211240BB60F922F937F
:101060003F934F935F936F937F938F939F93AF9330
:10107000BF93EF93FF9348EA50E064EA70E083E0A7
:1010800090E00E947C05FF91EF91BF91AF919F91FD
:101090008F917F916F915F914F913F912F910F9021
:1010A0000BBE0F900FBE0F901F9018951F920F92BE
:1010B0000FB60F9211240BB60F922F933F934F93BD
:1010C0005F936F937F938F939F93AF93BF93EF93B0
:1010D000FF9348E950E064E970E082E090E00E940C
:1010E0007C05FF91EF91BF91AF919F918F917F917F
:1010F0006F915F914F913F912F910F900BBE0F9089
:101100000FBE0F901F9018951F920F920FB60F925F
:1011100011240BB60F922F933F934F935F936F93CE
:101120007F938F939F93AF93BF93EF93FF9348E881
:1011300050E064E870E081E090E00E947C05FF915F
:10114000EF91BF91AF919F918F917F916F915F913F
:101150004F913F912F910F900BBE0F900FBE0F90AC
:101160001F901895CF92DF92EF92FF920F931F93EB
:10117000E82FF92F05C0015011092109310961F14A
:10118000908196239417B9F305C0015011092109E4
:10119000310911F1908196239413F7CFC12CD12CF2
:1011A000E12CF12C0AC08FEFC81AD80AE80AF80A15
:1011B0000C151D052E053F0579F0808186238417C7
:1011C00091F36C2D7D2D8E2D9F2D1F910F91FF90F2
:1011D000EF90DF90CF90089560E070E080E090E0C5
:1011E0001F910F91FF90EF90DF90CF900895CF93D4
:1011F000DF9300D0CDB7DEB7789484B5826084BD2C
:1012000084B5816084BD85B5826085BD85B581600A
:1012100085BD80916E00816080936E001092810088
:101220008091810082608093810080918100816043
:101230008093810080918000816080938000809104
:10124000B10084608093B1008091B0008160809390
:10125000B000809191008260809391008091910014
:1012600081608093910080919000816080939000D4
:101270008091A10082608093A1008091A100816093
:101280008093A1008091A00081608093A000809154
:1012900021018260809321018091210181608093EE
:1012A00021018091200181608093200180917A004A
:1012B000846080937A0080917A00826080937A00C3
:1012C00080917A00816080937A0080917A008068B2
:1012D00080937A001092C10061E089E10E94760259
:1012E00068E372E084E00E94910760E372E085E0C9
:1012F0000E94910768E272E086E00E94910760E236
:1013000072E087E00E94910768E172E088E00E9445
:10131000910760E172E089E00E94910768E072E065
:101320008AE00E94910760E072E08BE00E949107E2
:1013300014E0E1E0809172028111E0E0E195F0E0DB
:10134000E15AFD4F6489610F60688FE592E00E9469
:10135000F206612F8FE592E00E94EC061F5F1C30C1
:1013600041F760E088E10E94760269E0462E512C48
:10137000612C712C78EBE72E7BE0F72EE3E28E2ECA
:10138000912CF0E0AF2EF0E0BF2EDD24DA940E9425
:1013900024020E942402019709F045C061E0809177
:1013A0005D020E944802C4010197F1F760E080915C
:1013B0005D020E94480280915E0290E0FC01E45DC3
:1013C000FD4F6491FC01EA51FE4FE491F0E0EE0F15
:1013D000FF1FE453FE4F8591949100E412E42FE047
:1013E00030E0462F0E94B208611571058105910514
:1013F00009F042C096958795779567950E94670C8E
:1014000021E233E94CE05DE30E94A90C20E030E0EA
:1014100040E251E40E94A40C18160CF439C082E694
:101420000E94EA0335C06CE370E08CE60E9444053C
:1014300064EF71E080E090E00E9497030E94AC0BA3
:10144000A30192010E94040C6F5F7F4F8F4F9F4F4B
:10145000FB013197E930F10500F58827ED5CF54F88
:101460008F4F0C94970D4A0A480A540A820AA50A1B
:10147000A50AA80AA80AA80A6F5F7F4F8F4F9F4F3F
:101480009F70603325E772078105910508F4B2CF9C
:1014900086E601C082E60E94EA03A114B10409F4C1
:1014A00076CF0E94000073CF68E770E082E70E9469
:1014B000440564EF71E080E090E00E949703809122
:1014C00007038033E8F491E0980F90930703898332
:1014D00090E0FC01EE0FFF1FE80FF91FE958FD4FE8
:1014E000F282E18260910B0370E0CE0101960E94CE
:1014F000BC046CE370E0CE0101960E945904CDCF8C
:10150000D982F0CF68E770E08CE60E94440564EF72
:1015100071E080E090E00E949703809107038033A0
:1015200090F491E0980F90930703898390E0FC0179
:10153000EE0FFF1FE80FF91FE958FD4FF282E1821D
:1015400060910A03D1CFD982FBCF0E943606A5CF86
:101550000E94CA03A2CF7F928F929F92AF92BF92B6
:10156000CF92DF92EF92FF920F931F93CF93DF936F
:10157000CDB7DEB768970FB6F894DEBF0FBECDBF0C
:10158000EFE5F2E01382128288E4A82E82E0B82E02
:10159000B182A08298E0792E748227E0822E858223
:1015A00036E0932E968245E0C42EC78254E0D52EB5
:1015B000D08663E0E62EE18672E0F72EF28613868F
:1015C000148615861686178661E0CF010E94F506FF
:1015D0000DE512E061E0F80180810E94760260E092
:1015E000F80181810E94760287E1F801808386E11B
:1015F00081831C821B82BA82A9827D828E829F8215
:10160000C886D986EA86FB861C861D861E861F86AE
:10161000188A61E0CE0101960E94F50662E0CE01D3
:1016200001960E94F50661E0CE0101960E94F20645
:101630008BE39FE10197F1F761E085E30E94760279
:1016400061E084E30E94760261E083E30E94760217
:1016500061E080E30E94760261E082E30E9476020C
:1016600061E081E30E947602ECE0F3E085E38083B1
:1016700084E3818383E3828380E3858382E38383BE
:1016800081E38483E8E0F3E08BE0808386E281837A
:101690008CE0828387E2838368960FB6F894DEBF7E
:1016A0000FBECDBFDF91CF911F910F91FF90EF90B3
:1016B000DF90CF90BF90AF909F908F907F900895D4
:1016C0008F929F92AF92BF92CF92DF92EF92FF9252
:1016D000CF93DF93EC01688179818A819B816115C9
:1016E00071058105910521F464E279ED8BE597E0C0
:1016F0002DE133EF41E050E00E94040C49015A0112
:101700009B01AC01A7EAB1E40E94230C6B017C01B0
:10171000ACEEB4EFA50194010E94310CC60ED71EA9
:10172000E81EF91EF7FE06C081E0C81AD108E108DC
:1017300080E8F80AC882D982EA82FB82C701B60132
:101740009F77DF91CF91FF90EF90DF90CF90BF9088
:10175000AF909F908F9008958F929F92AF92BF927B
:10176000CF92DF92EF92FF9260914002709141021E
:1017700080914202909143026115710581059105A6
:1017800021F464E279ED8BE597E02DE133EF41E060
:1017900050E00E94040C49015A019B01AC01A7EAE8
:1017A000B1E40E94230C6B017C01ACEEB4EFA50107
:1017B00094010E94310CC60ED71EE81EF91EF7FEDA
:1017C00006C081E0C81AD108E10880E8F80AC09292
:1017D0004002D0924102E0924202F0924302C701DD
:1017E000B6019F77FF90EF90DF90CF90BF90AF90C2
:1017F0009F908F9008956093400270934102809370
:101800004202909343020895052E97FB1EF4009424
:101810000E941B0C57FD07D00E94360C07FC03D01A
:101820004EF40C941B0C50954095309521953F4FEC
:101830004F4F5F4F089590958095709561957F4FBC
:101840008F4F9F4F08950E94580CA59F900DB49FF5
:10185000900DA49F800D911D11240895B7FF0C9445
:10186000230C0E94230C821B930B0895A1E21A2ED5
:10187000AA1BBB1BFD010DC0AA1FBB1FEE1FFF1F34
:10188000A217B307E407F50720F0A21BB30BE40B84
:10189000F50B661F771F881F991F1A9469F76095CB
:1018A0007095809590959B01AC01BD01CF01089585
:1018B000A29FB001B39FC001A39F700D811D112491
:1018C000911DB29F700D811D1124911D0895E89402
:1018D00009C097FB3EF490958095709561957F4F78
:1018E0008F4F9F4F9923A9F0F92F96E9BB27939526
:1018F000F695879577956795B795F111F8CFFAF436
:10190000BB0F11F460FF1BC06F5F7F4F8F4F9F4F66
:1019100016C0882311F096E911C0772321F09EE8C4
:10192000872F762F05C0662371F096E8862F70E02A
:1019300060E02AF09A95660F771F881FDAF7880F04
:101940009695879597F908950E94160D08F48FEFE4
:1019500008950E94BC0C0C94510D0E94430D38F068
:101960000E944A0D20F0952311F00C943A0D0C942E
:10197000400D11240C94850D0E94620D70F3959F0B
:10198000C1F3950F50E0551F629FF001729FBB2776
:10199000F00DB11D639FAA27F00DB11DAA1F649F12
:1019A0006627B00DA11D661F829F2227B00DA11DC5
:1019B000621F739FB00DA11D621F839FA00D611D4B
:1019C000221F749F3327A00D611D231F849F600D6C
:1019D000211D822F762F6A2F11249F5750409AF095
:1019E000F1F088234AF0EE0FFF1FBB1F661F771F21
:1019F000881F91505040A9F79E3F510580F00C94EC
:101A00003A0D0C94850D5F3FE4F3983ED4F3869530
:101A100077956795B795F795E7959F5FC1F7FE2B8B
:101A2000880F911D9695879597F90895990F00084D
:101A3000550FAA0BE0E8FEEF16161706E807F907A0
:101A4000C0F012161306E407F50798F0621B730B3B
:101A5000840B950B39F40A2661F0232B242B252BBC
:101A600021F408950A2609F4A140A6958FEF811D5F
:101A7000811D089597F99F6780E870E060E0089500
:101A80009FEF80EC089500240A9416161706180696
:101A90000906089500240A94121613061406050672
:101AA0000895092E0394000C11F4882352F0BB0F03
:101AB00040F4BF2B11F460FF04C06F5F7F4F8F4F66
:101AC0009F4F089557FD9058440F551F59F05F3FA1
:101AD00071F04795880F97FB991F61F09F3F79F050
:101AE00087950895121613061406551FF2CF4695D2
:101AF000F1DF08C0161617061806991FF1CF869554
:101B00007105610508940895E894BB276627772737
:101B1000CB0197F90895991B79E004C0991F961796
:101B200008F0961B881F7A95C9F780950895EE0FE7
:101B3000FF1F881F8BBF0790F691E02D1994F89432
:101B4000FFCF000000101004050110140501000073
:101B50000000001F1F0000000000001F1F00000009
:101B60000000001F1F0000000000001F1F000000F9
:101B70000000010514100000000000000101040431
:101B800010100100000000000000EC069001560457
:021B90005504FA
:10E000000D9489F10D94B2F10D94B2F10D94B2F129
:10E010000D94B2F10D94B2F10D94B2F10D94B2F1F0
:10E020000D94B2F10D94B2F10D94B2F10D94B2F1E0
:10E030000D94B2F10D94B2F10D94B2F10D94B2F1D0
:10E040000D94B2F10D94B2F10D94B2F10D94B2F1C0
:10E050000D94B2F10D94B2F10D94B2F10D94B2F1B0
:10E060000D94B2F10D94B2F10D94B2F10D94B2F1A0
:10E070000D94B2F10D94B2F10D94B2F10D94B2F190
:10E080000D94B2F10D94B2F10D94B2F10D94B2F180
:10E090000D94B2F10D94B2F10D94B2F10D94B2F170
:10E0A0000D94B2F10D94B2F10D94B2F10D94B2F160
:10E0B0000D94B2F10D94B2F10D94B2F10D94B2F150
:10E0C0000D94B2F10D94B2F10D94B2F10D94B2F140
:10E0D0000D94B2F10D94B2F10D94B2F10D94B2F130
:10E0E0000D94B2F141546D656761323536300041AF
:10E0F000726475696E6F206578706C6F72657220DE
:10E1000073746B3530305632206279204D4C530099
:10E11000426F6F746C6F616465723E004875683F52
:10E1200000436F6D70696C6564206F6E203D200048
:10E130004350552054797065202020203D20005FF9
:10E140005F4156525F415243485F5F3D2000415658
:10E1500052204C696243205665723D20004743437C
:10E160002056657273696F6E203D20004350552024
:10E1700049442020202020203D20004C6F7720663D
:10E18000757365202020203D20004869676820665F
:10E190007573652020203D200045787420667573D6
:10E1A00065202020203D20004C6F636B2066757336
:10E1B000652020203D20004D617220203720323024
:10E1C000313300312E362E3800342E332E350056A2
:10E1D00023202020414444522020206F7020636F70
:10E1E00064652020202020696E73747275637469E1
:10E1F0006F6E2061646472202020496E74657272B3
:10E20000757074006E6F20766563746F7200726A49
:10E210006D702020006A6D70200057686174207056
:10E220006F72743A00506F7274206E6F7420737541
:10E2300070706F72746564004D7573742062652030
:10E2400061206C6574746572002000577269747483
:10E25000696E672045450052656164696E672045B7
:10E26000450045452065727220636E743D00504F35
:10E27000525400303D5A65726F2061646472003FF1
:10E280003D43505520737461747300403D454550C3
:10E29000524F4D207465737400423D426C696E6B41
:10E2A000204C454400453D44756D70204545505215
:10E2B0004F4D00463D44756D7020464C415348001B
:10E2C000483D48656C70004C3D4C69737420492F83
:10E2D0004F20506F72747300513D51756974005234
:10E2E0003D44756D702052414D00563D73686F7707
:10E2F00020696E7465727275707420566563746FF0
:10E30000727300593D506F727420626C696E6B00BD
:10E310002A0011241FBECFEFD1E2DEBFCDBF01E046
:10E320000CBF12E0A0E0B2E0EEE1FDEF03E00BBFB6
:10E3300002C007900D92A030B107D9F712E0A0E01B
:10E34000B2E001C01D92AE30B107E1F70F9460F367
:10E350000D948DFE01E20EBF0FEF0DBF11241FBE05
:10E360000D9460F30D9400F020E030E040ED57E0B4
:10E3700005C0FA013197F1F72F5F3F4F2817390792
:10E38000C0F308959C01260F311DC901A0E0B0E043
:10E390002F5F3F4FABBFFC018791882361F08093D3
:10E3A000C6008091C00086FFFCCF8091C0008064D1
:10E3B0008093C000EACF08958DE08093C6008091DD
:10E3C000C00086FFFCCF8091C00080648093C000B5
:10E3D0008AE08093C6008091C00086FFFCCF8091C8
:10E3E000C00080648093C00008950F94C2F10F9420
:10E3F000DCF10895FC019081992359F09093C600B7
:10E400008091C00086FFFCCF8091C0008064809323
:10E41000C0003196992379F70895282F982F929567
:10E420009F70892F805D8A3308F0895F8093C600D2
:10E430008091C00086FFFCCF8091C00080648093F3
:10E44000C000822F8F70982F905D9A3308F0995FEB
:10E450009093C6008091C00086FFFCCF8091C000E1
:10E4600080648093C00008959C01FB01853691056E
:10E470001CF46330710594F0C90164E670E00F94F8
:10E480002EFE605D7F4F6093C6008091C00086FFC6
:10E49000FCCF8091C00080648093C0002B30310598
:10E4A00014F43297B4F0C90164E670E00F942EFEC4
:10E4B0006AE070E00F942EFE605D7F4F6093C600AF
:10E4C0008091C00086FFFCCF8091C0008064809363
:10E4D000C000C9016AE070E00F942EFEC0968093E0
:10E4E000C6008091C00086FFFCCF8091C000806490
:10E4F0008093C00008951F93182F8EE692EE60E07F
:10E500000F94C2F11093C6008091C00086FFFCCF2B
:10E510008091C00080648093C0000F94DCF11F9153
:10E5200008952F923F924F925F926F927F928F92B7
:10E530009F92AF92BF92CF92DF92EF92FF920F9392
:10E540001F93DF93CF93CDB7DEB762970FB6F894E2
:10E55000DEBF0FBECDBF382E622ECA01DB015C01CB
:10E560006D01772420E2222E2E010894411C511CBB
:10E570008BC081E0A81680E0B80681E0C80680E084
:10E58000D80628F0C601AA27BB270F940DF2BB2797
:10E59000AD2D9C2D8B2D0F940DF28A2D0F940DF225
:10E5A0002092C6008091C00086FFFCCF8091C00001
:10E5B00080648093C0009DE29093C6008091C0006B
:10E5C00086FFFCCF8091C00080648093C0002092C1
:10E5D000C6008091C00086FFFCCF8091C00080649F
:10E5E0008093C00019828601750188249924A1E0D6
:10E5F0003A1651F03A1620F0B2E03B1661F409C029
:10E600000BBFF701779007C0C7010F9477FE782EF4
:10E6100002C0F7017080872D0F940DF22092C60082
:10E620008091C00086FFFCCF8091C0008064809301
:10E63000C000872D8052F401EF70F0708F3520F408
:10E64000E40DF51D708204C0E40DF51D8EE280839B
:10E650000894E11CF11C011D111D0894811C911CE2
:10E6600090E18916910409F0C2CF80E190E0A0E02A
:10E67000B0E0A80EB91ECA1EDB1E198AC2010F9493
:10E68000FAF10F94DCF16A94662009F072CF629679
:10E690000FB6F894DEBF0FBECDBFCF91DF911F91B3
:10E6A0000F91FF90EF90DF90CF90BF90AF909F9031
:10E6B0008F907F906F905F904F903F902F90089534
:10E6C0002F923F924F925F926F927F928F929F9282
:10E6D000AF92BF92CF92DF92EF92FF920F931F9370
:10E6E000DF93CF93CDB7DEB7CD53D1400FB6F894BB
:10E6F000DEBF0FBECDBF01E20EBF0FEF0DBF94B75F
:10E70000F894A89514BE80916000886180936000A1
:10E7100010926000789493FF05C0E0910002F091A0
:10E7200001021995279A2F9A8091C00082608093E8
:10E73000C00080E18093C40088E18093C1000000A4
:10E74000EE24FF24870144E0A42EB12CCC24DD2448
:10E7500024C0C5010197F1F70894E11CF11C011DCB
:10E76000111D21E2E2162EE4F20620E0020720E06D
:10E77000120718F031E0C32ED12CC801B70127ECE5
:10E780003BE140E050E00F9441FE611571058105C9
:10E79000910519F485B1805885B98091C00087FD35
:10E7A00003C0C114D104A9F2A6014F5F5F4FC25E3E
:10E7B000DE4F59834883CE51D140C25EDE4F8881FF
:10E7C0009981CE51D140019711F00D9410FEC05D9A
:10E7D000DE4F19821882C053D14060E0C15DDE4F28
:10E7E0001882CF52D14088249924C35DDE4F19820C
:10E7F0001882CD52D140C05EDE4F188219821A8233
:10E800001B82C052D140CE5CDE4F188219821A8220
:10E810001B82C253D140EE24FF2487010BBFF701B6
:10E8200007911691C45CDE4F19830883CC53D14005
:10E830000D940BFEC25EDE4F28813981CE51D1404E
:10E840002130310509F52091C600C25EDE4F1982E4
:10E850001882CE51D14022C02F5F3F4F4F4F5F4FA4
:10E86000213082E138078AE7480780E0580780F0C6
:10E87000C45CDE4FE881F981CC53D140EF5FFF4F9C
:10E8800019F0EE27FF27099420E030E040E050E047
:10E890008091C00087FFE0CF2091C600C35DDE4FAE
:10E8A00048815981CD52D1404F5F5F4FC35DDE4FEC
:10E8B00059834883CD52D140213209F063C64A3092
:10E8C000510508F05FC60894811C911C53E0851621
:10E8D000910409F059C600E010E018C081E280936D
:10E8E000C6008091C00086FFFCCF8091C00080648C
:10E8F0008093C0002F5F3F4F2931310579F70F9486
:10E90000DCF10F5F1F4F0530110519F020E030E0FA
:10E91000E5CF10920A0210920B0210920C02109294
:10E920000D02109206021092070210920802109235
:10E930000902109202021092030210920402109235
:10E9400005028FEE90EE60E00F94F5F180E191EE1C
:10E9500060E00F94C2F18091C00087FFFCCF9091DE
:10E96000C600903608F09F759032B8F09093C600BC
:10E970008091C00086FFFCCF8091C00080648093AE
:10E98000C000A0E2A093C6008091C00086FFFCCF2B
:10E990008091C00080648093C000983409F4D7C18E
:10E9A0009934B8F4923409F459C1933458F490333B
:10E9B00019F1903308F4E3C59F33A1F1903409F0C5
:10E9C000DEC5BDC0953409F470C1963409F0D7C5D1
:10E9D00098C1923509F42BC2933538F49C3409F46C
:10E9E000F5C1913509F0CBC518C2963509F445C279
:10E9F000993509F0C4C567C483E792EE62E00F94CD
:10EA0000F5F110920602109207021092080210927D
:10EA1000090210920A0210920B0210920C0210923C
:10EA20000D0213C18FE792EE62E00F94F5F18FEEC5
:10EA300090EE60E00F94F5F181E291EE60E00F94CA
:10EA4000C2F187EB91EE60E00F94F5F180E391EE77
:10EA500060E00F94C2F184EE90EE60E00F94F5F167
:10EA60008FE391EE60E00F94C2F186E090E061E008
:10EA700070E00F9434F20F94DCF18DE591EE60E0DC
:10EA80000F94C2F189EC91EE60E00F94F5F18EE401
:10EA900091EE60E00F94C2F183EC91EE60E00F9490
:10EAA000F5F18CE691EE60E00F94C2F18EE10F94E7
:10EAB0000DF288E90F940DF281E00F940DF20F949E
:10EAC000DCF18BE791EE60E00F94C2F119E0E0E039
:10EAD000F0E010935700E4918E2F0F940DF20F94F5
:10EAE000DCF18AE891EE60E00F94C2F1E3E0F0E03F
:10EAF00010935700E4918E2F0F940DF20F94DCF1D8
:10EB000089E991EE60E00F94C2F1E2E0F0E0109349
:10EB10005700E4918E2F0F940DF20F94DCF188EAE8
:10EB200091EE60E00F94C2F1E1E0F0E01093570045
:10EB30001491812F0F940DF20F94DCF107CF8BE825
:10EB400092EE62E00F94F5F18BE492EE60E00F94A8
:10EB5000F5F10F94DCF100E010E019C0C8016F2D51
:10EB60000F947FFEFF2031F489E492EE60E00F9471
:10EB7000C2F10BC0F092C6008091C00086FFFCCFAE
:10EB80008091C00080648093C0000F5F1F4FC80158
:10EB900081519F41A0E0B0E0ABBFFC01F790BAE229
:10EBA000FB1621F0E2E000301E07C1F60F94DCF105
:10EBB0000F94DCF187E592EE60E00F94F5F10F948D
:10EBC000DCF1CC24DD2400E010E01EC0C8010F946D
:10EBD00077FEF82E882331F489E492EE60E00F94FA
:10EBE000C2F10BC08093C6008091C00086FFFCCFAD
:10EBF0008091C00080648093C000FE1419F00894D6
:10EC0000C11CD11C0F5F1F4FC80181519F41A0E063
:10EC1000B0E0ABBFFC01E790FAE2EF1621F022E092
:10EC20000030120799F60F94DCF10F94DCF182E6C4
:10EC300092EE60E00F94C2F1C60161E070E00F94C3
:10EC400034F20F94DCF10F94DCF110920202109276
:10EC50000302109204021092050278CE89E992EE26
:10EC600062E00F94F5F1279A2F9A16C02F9880E052
:10EC700090E0E0EDF7E03197F1F7019684369105E9
:10EC8000C1F72F9A80E090E0E0EDF7E03197F1F7DF
:10EC9000019684369105C1F78091C00087FFE6CFC9
:10ECA0008091C00087FFFCCF64C485EA92EE62E0E9
:10ECB0000F94F5F140910202509103026091040219
:10ECC0007091050281E020E10F9491F2809102029F
:10ECD00090910302A0910402B091050280509F4FD1
:10ECE000AF4FBF4F8093020290930302A0930402A0
:10ECF000B093050280509041A040B04008F426CE69
:10ED0000A4CF83EB92EE62E00F94F5F140910602FE
:10ED100050910702609108027091090280E020E1A1
:10ED20000F9491F28091060290910702A09108023F
:10ED3000B091090280509F4FAF4FBF4F80930602A2
:10ED400090930702A0930802B0930902FFCD80ECD4
:10ED500092EE62E00F94F5F183E792EE60E00F949B
:10ED6000F5F18FE792EE60E00F94F5F18BE892EE0B
:10ED700060E00F94F5F189E992EE60E00F94F5F10F
:10ED800085EA92EE60E00F94F5F183EB92EE60E09D
:10ED90000F94F5F180EC92EE60E00F94F5F187ECC2
:10EDA00092EE60E00F94F5F188ED92EE60E00F9442
:10EDB000F5F18FED92EE60E00F94F5F18AEE92EEB0
:10EDC00060E00F94F5F183E093EEBDCD87EC92EE19
:10EDD00062E00F94F5F181E40F947BF282E40F94EA
:10EDE0007BF283E40F947BF284E40F947BF285E45E
:10EDF0000F947BF286E40F947BF287E40F947BF20E
:10EE000088E40F947BF28AE40F947BF28BE40F94F6
:10EE10007BF28CE40F947BF299CD88ED92EE62E068
:10EE20000F94F5F1772473948824992409C48FED05
:10EE300092EE62E00F94F5F140910A0250910B02BC
:10EE400060910C0270910D0282E020E10F9491F22A
:10EE500080910A0290910B02A0910C02B0910D02D8
:10EE600080509F4FAF4FBF4F80930A0290930B0289
:10EE7000A0930C02B0930D0269CD8AEE92EE62E08F
:10EE80000F94F5F184EE90EE60E00F94F5F18FECC5
:10EE900091EE60E00F94F5F1662477244301CC5D98
:10EEA000DE4F19821882C452D140D401C301B695F5
:10EEB000A79597958795CA5DDE4F88839983AA8326
:10EEC000BB83C652D140CC5DDE4FA881B981C4520C
:10EED000D1401196CC5DDE4FB983A883C452D14096
:10EEE000CD0162E070E00F9434F2B0E2B093C6005E
:10EEF0008091C00086FFFCCF8091C0008064809329
:10EF0000C000EDE2E093C6008091C00086FFFCCF18
:10EF10008091C00080648093C000F0E2F093C6004E
:10EF20008091C00086FFFCCF8091C00080648093F8
:10EF3000C000CA5DDE4FE880F9800A811B81C6529D
:10EF4000D140BB27A12F902F8F2D0F940DF2CA5DBA
:10EF5000DE4F8881C652D1400F940DF2B0E2FB2EF5
:10EF6000F092C6008091C00086FFFCCF8091C00067
:10EF700080648093C0000DE30093C6008091C000C0
:10EF800086FFFCCF8091C00080648093C00010E2B7
:10EF90001093C6008091C00086FFFCCF8091C00016
:10EFA00080648093C0008BBEF3012791C65DDE4F65
:10EFB0002883CA52D140A22EBB24CC24DD2408943D
:10EFC000611C711C811C911C8BBEF3018791282E42
:10EFD0003324442455240894611C711C811C911C09
:10EFE0008BBEF3013791C55DDE4F3883CB52D140E4
:10EFF0000894611C711C811C911C8BBEF30147910C
:10F00000C45DDE4F4883CC52D140ADEFEA2EAFEF66
:10F01000FA2EAFEF0A2FAFEF1A2F6E0C7F1C801E57
:10F02000911E142D032DF22CEE24EA0CFB1C0C1D5A
:10F030001D1D0F940DF220E22093C6008091C000A8
:10F0400086FFFCCF8091C00080648093C000C65DC5
:10F05000DE4F8881CA52D1400F940DF230E23093D6
:10F06000C6008091C00086FFFCCF8091C000806404
:10F070008093C000C45DDE4F8881CC52D1400F9494
:10F080000DF240E24093C6008091C00086FFFCCFA5
:10F090008091C00080648093C000C55DDE4F888190
:10F0A000CB52D1400F940DF250E25093C6008091A4
:10F0B000C00086FFFCCF8091C00080648093C000B8
:10F0C0008FEFE8168FEFF80680E0080780E018075A
:10F0D00031F484E092EE60E00F94C2F1DFC0D80119
:10F0E000C7018070907CA070B0708050904CA040A0
:10F0F000B040D1F52FEF3FE340E050E0E222F322B1
:10F1000004231523CA5DDE4FA880B980CA80DB8046
:10F11000C652D140AE0CBF1CC01ED11EAA0CBB1CD7
:10F12000CC1CDD1C8EE092EE60E00F94C2F1BB2798
:10F13000A12F902F8F2D0F940DF28E2D0F940DF285
:10F1400030E23093C6008091C00086FFFCCF8091F2
:10F15000C00080648093C0004EE34093C60080915D
:10F16000C00086FFFCCF87C08EE09EEFA0E0B0E03D
:10F17000E822F9220A231B239CE0E91694E9F90608
:10F1800090E0090790E0190709F088C0C45DDE4FE0
:10F19000A881CC52D140EA2EFF2400E010E0102FCD
:10F1A0000F2DFE2CEE24C55DDE4FB881CB52D14031
:10F1B000EB0EF11C011D111DD601C501817090706F
:10F1C000A070B070DC0199278827E80EF91E0A1F8D
:10F1D0001B1F20EF30E040E050E0A222B322C42207
:10F1E000D52241E1AA0CBB1CCC1CDD1C4A95D1F7F1
:10F1F000EA0CFB1C0C1D1D1D81E090E0A0E0B0E0BE
:10F20000282239224A225B2235E1220C331C441C7D
:10F21000551C3A95D1F7E20CF31C041D151D57013E
:10F220006801AA0CBB1CCC1CDD1C85E192EE60E0E1
:10F230000F94C2F1C801AA27BB270F940DF2BB2778
:10F24000A12F902F8F2D0F940DF28E2D0F940DF274
:10F2500090E29093C6008091C00086FFFCCF809121
:10F26000C00080648093C000AEE3A093C60080918C
:10F27000C00086FFFCCF8091C00080648093C000F6
:10F28000C601AA27BB270F940DF2BB27AD2D9C2DDD
:10F290008B2D0F940DF28A2D0F940DF20F94DCF14B
:10F2A000CC5DDE4FE881F981C452D140F99709F471
:10F2B0004DCBF4E0EF2EF12C012D112D6E0C7F1CA7
:10F2C000801E911EF2CD83E093EE62E00F94F5F183
:10F2D0008AE192EE60E00F94C2F18091C00087FF56
:10F2E000FCCF1091C6001F751093C6008091C0001E
:10F2F00086FFFCCF8091C00080648093C0000F9493
:10F30000DCF1812F81548A3108F036C1163409F4BA
:10F3100095C0173490F4133409F44EC0143430F40B
:10F320001134F1F0123409F01DC130C0143409F465
:10F3300059C0153409F016C16BC01A3409F4C4C0A1
:10F340001B3438F4173409F48FC0183409F00AC19B
:10F35000A1C01B3409F4D2C01C3409F003C1E8C0B9
:10F360008FEF81B90DC082B1809582B980E090E0C5
:10F37000E0EDF7E03197F1F70196883C9105C1F790
:10F380008091C00087FFEFCF12B8EFC08FEF84B934
:10F390000DC085B1809585B980E090E0E0EDF7E0A3
:10F3A0003197F1F70196883C9105C1F78091C00033
:10F3B00087FFEFCF15B8D9C08FEF87B90DC088B1DF
:10F3C000809588B980E090E0E0EDF7E03197F1F7C3
:10F3D0000196883C9105C1F78091C00087FFEFCF6F
:10F3E00018B8C3C08FEF8AB90DC08BB180958BB9A7
:10F3F00080E090E0E0EDF7E03197F1F70196883C8E
:10F400009105C1F78091C00087FFEFCF1BB8ADC059
:10F410008FEF8DB90DC08EB180958EB980E090E0F0
:10F42000E0EDF7E03197F1F70196883C9105C1F7DF
:10F430008091C00087FFEFCF1EB897C08FEF80BBD1
:10F440000DC081B3809581BB80E090E0E0EDF7E0F6
:10F450003197F1F70196883C9105C1F78091C00082
:10F4600087FFEFCF11BA81C08FEF83BB0DC084B38C
:10F47000809584BB80E090E0E0EDF7E03197F1F714
:10F480000196883C9105C1F78091C00087FFEFCFBE
:10F4900014BA6BC08FEF809301010FC080910201FD
:10F4A00080958093020180E090E0E0EDF7E03197F5
:10F4B000F1F70196883C9105C1F78091C00087FF64
:10F4C000EDCF1092020151C08FEF809304010FC065
:10F4D0008091050180958093050180E090E0E0ED4A
:10F4E000F7E03197F1F70196883C9105C1F78091DB
:10F4F000C00087FFEDCF1092050137C08FEF8093DA
:10F5000007010FC08091080180958093080180E079
:10F5100090E0E0EDF7E03197F1F70196883C910536
:10F52000C1F78091C00087FFEDCF109208011DC088
:10F530008FEF80930A010FC080910B01809580931B
:10F540000B0180E090E0E0EDF7E03197F1F70196F4
:10F55000883C9105C1F78091C00087FFEDCF1092E4
:10F560000B0103C085E292EEEEC98091C00087FFD7
:10F57000FCCF8091C600EAC988E392EEE4C98CE131
:10F5800091EEE1C988249924933011F1943028F444
:10F59000913089F09230B8F408C0953061F195301F
:10F5A000F0F0963009F048C043C02B3109F042C951
:10F5B00091E06BE13FC96227C15DDE4F2883CF52E6
:10F5C000D14092E037C9B22FA0E0622793E032C960
:10F5D000822F90E0A82BB92B622794E02BC92E3004
:10F5E00009F039C3622795E0C05DDE4F19821882A9
:10F5F000C053D1401FC9E1E0F0E0EC0FFD1FC05D3A
:10F60000DE4F08811981C053D140E00FF11F2083E4
:10F610000F5F1F4FC05DDE4F19830883C053D14079
:10F6200062270A171B0709F005C9D80196E002C92D
:10F63000261709F010C303C0973009F0FBC87724E0
:10F640009981933109F412C19431C8F4963009F4C8
:10F65000D8C0973050F4923009F406C1933009F4C1
:10F660006DC0913009F059C253C0913109F477C08F
:10F67000923108F0BBC0903109F04FC2F5C098310B
:10F6800009F487C0993150F4953109F4EFC09531F0
:10F6900008F4C6C1963109F040C2C2C19A3109F4DA
:10F6A0006CC09A3108F491C09B3109F45BC09D3164
:10F6B00009F033C29D81903359F48F81882311F46E
:10F6C0009EE11CC0813011F091E018C098E916C08D
:10F6D000892F807591F0903539F4E0E0F0E089E011
:10F6E0008093570094910AC0983539F4E3E0F0E034
:10F6F00089E080935700949101C090E01A821B82A8
:10F700008D818C831D829E831F8227E030E009C299
:10F710001A8288E08B8381E48C8386E58D8382E581
:10F720008E8389E48F8383E5888780E589878FE5E9
:10F730008A8782E38B872BE030E0F3C18A818139AD
:10F7400041F0823941F0803911F48FE005C080E04A
:10F7500003C082E001C08AE01A828B8344C0772410
:10F76000739482C08D81882311F48EE12CC0813086
:10F7700011F081E028C088E926C01A82E1E0F0E0BB
:10F7800089E08093570084918B831C8224E030E0D1
:10F79000C8C18B81803589F48C81883039F4E2E0EE
:10F7A000F0E089E08093570084910DC0E0E0F0E044
:10F7B00089E080935700849106C0E3E0F0E089E09F
:10F7C0008093570084911A82DFCF8D81836C99E0FA
:10F7D000E1E0F0E0082E90935700E89507B600FCB2
:10F7E000FDCF1A821B8223E030E09BC180EC8A832C
:10F7F000CE5CDE4F188219821A821B82C253D1401E
:10F800008EC18A8190E0A0E0B0E0582F44273327D2
:10F8100022278B8190E0A0E0B0E0DC0199278827C7
:10F82000282B392B4A2B5B2B8D8190E0A0E0B0E098
:10F83000282B392B4A2B5B2B8C8190E0A0E0B0E089
:10F84000BA2FA92F982F8827282B392B4A2B5B2BCF
:10F85000220F331F441F551FC05EDE4F288339839C
:10F860004A835B83C052D1401A8259C13A81C95C34
:10F87000DE4F3883C753D140CA5CDE4F1882C6536F
:10F88000D1408B81C82EDD24CA5CDE4F488159816E
:10F89000C653D140C42AD52A933109F082C0CE5C28
:10F8A000DE4F88819981AA81BB81C253D1408050AB
:10F8B000904CA340B04030F583E0CE5CDE4FE88052
:10F8C000F9800A811B81C253D140F70100935B008C
:10F8D00080935700E89507B600FCFDCFCE5CDE4F65
:10F8E000088119812A813B81C253D14000501F4FAA
:10F8F0002F4F3F4FCE5CDE4F088319832A833B8313
:10F90000C253D140C05EDE4F488159816A817B81FC
:10F91000C052D140DE011B9631E08C9111962C91A2
:10F9200011971296C75CDE4F2883C953D140C85C3B
:10F93000DE4F1882C853D14090E0C85CDE4FE881AA
:10F94000F981C853D1408E2B9F2B0C01FA01609393
:10F950005B0030935700E89511244E5F5F4F6F4F67
:10F960007F4F0EEFE02E0FEFF02ECE0CDF1CC114F8
:10F97000D10499F685E0C05EDE4F088119812A81A5
:10F980003B81C052D140F80120935B008093570027
:10F99000E89507B600FCFDCF81E180935700E8951C
:10F9A00035C0C05EDE4F88819981AA81BB81C0527B
:10F9B000D140B695A795979587957C018601ABE0D8
:10F9C000AA2EB12CAC0EBD1E0BC0D5016D915D01F0
:10F9D000C7010F947FFE0894E11CF11C01501040F8
:10F9E0000115110591F7A60160E070E0440F551F65
:10F9F000661F771FC05EDE4FE880F9800A811B8199
:10FA0000C052D1404E0D5F1D601F711F1A82C05E33
:10FA1000DE4F488359836A837B83C052D1407FC0C5
:10FA2000FA80C55CDE4FF882CB53D140C65CDE4F16
:10FA30001882CA53D1408B81C82EDD24C65CDE4FAC
:10FA400008811981CA53D140C02AD12A1A828981DA
:10FA5000BE016D5F7F4F843121F59601C05EDE4FA0
:10FA6000E880F9800A811B81C052D1400BBFF701A9
:10FA700087919691DB018C9311969C936E5F7F4FDB
:10FA8000D801C7010296A11DB11DC05EDE4F88835B
:10FA90009983AA83BB83C052D14022503040F1F6F3
:10FAA00036C0C05EDE4F288139814A815B81C052F9
:10FAB000D1400894C108D108760100E010E0089414
:10FAC000C11CD11C0894E11CF11C011D111DE20E8A
:10FAD000F31E041F151F21BDBB27A52F942F832FB5
:10FAE00082BD2F5F3F4F4F4F5F4FF89A80B5DB01CC
:10FAF0008D93BD012E153F054007510761F7C05E8C
:10FB0000DE4F288339834A835B83C052D1409601FC
:10FB10002D5F3F4FFB01108204C080EC8A8322E0FE
:10FB200030E08BE18093C6008091C00086FFFCCF5F
:10FB30008091C00080648093C000C15DDE4FF88179
:10FB4000CF52D140F093C6008091C00086FFFCCF19
:10FB50008091C00080648093C000432F3093C60022
:10FB60008091C00086FFFCCF8091C00080648093AC
:10FB7000C000922F2093C6008091C00086FFFCCF6A
:10FB80008091C00080648093C0008EE08093C600A6
:10FB90008091C00086FFFCCF8091C000806480937C
:10FBA000C00065E1C15DDE4FE880CF52D1406E25D7
:10FBB00069276427FE01319610C090819093C6009A
:10FBC0008091C00086FFFCCF31968091C000806498
:10FBD0008093C0006927215030402115310569F715
:10FBE0006093C6008091C00086FFFCCF8091C0006A
:10FBF00080648093C00085B1805885B9772081F4F6
:10FC0000C15DDE4F0881CF52D1400F5FC15DDE4F35
:10FC10000883CF52D14090E0A0E0B0E00D941AF4F8
:10FC200027982F9880E090E020ED37E0F901319798
:10FC3000F1F7019684369105C9F700008091C00064
:10FC40008D7F8093C00081E180935700E895EE2777
:10FC5000FF270994FFCF90E00D941AF497FB092E2B
:10FC600007260AD077FD04D02ED006D000201AF443
:10FC7000709561957F4F0895F6F7909581959F4F08
:10FC80000895A1E21A2EAA1BBB1BFD010DC0AA1FDD
:10FC9000BB1FEE1FFF1FA217B307E407F50720F0F5
:10FCA000A21BB30BE40BF50B661F771F881F991F70
:10FCB0001A9469F760957095809590959B01AC01B9
:10FCC000BD01CF010895AA1BBB1B51E107C0AA1FAC
:10FCD000BB1FA617B70710F0A61BB70B881F991FED
:10FCE0005A95A9F780959095BC01CD010895F99991
:10FCF000FECF92BD81BDF89A992780B50895262F31
:10FD0000F999FECF1FBA92BD81BD20BD0FB6F89400
:0EFD1000FA9AF99A0FBE01960895F894FFCF63
:00000001FF
